{
  "contractName": "Wildalo",
  "abi": [
    {
      "constant": false,
      "inputs": [
        {
          "name": "_address",
          "type": "address"
        }
      ],
      "name": "setAuctionContract",
      "outputs": [],
      "payable": false,
      "stateMutability": "nonpayable",
      "type": "function"
    },
    {
      "constant": true,
      "inputs": [],
      "name": "name",
      "outputs": [
        {
          "name": "",
          "type": "string"
        }
      ],
      "payable": false,
      "stateMutability": "view",
      "type": "function"
    },
    {
      "constant": true,
      "inputs": [
        {
          "name": "_tokenId",
          "type": "uint256"
        }
      ],
      "name": "getApproved",
      "outputs": [
        {
          "name": "",
          "type": "address"
        }
      ],
      "payable": false,
      "stateMutability": "view",
      "type": "function"
    },
    {
      "constant": false,
      "inputs": [
        {
          "name": "_to",
          "type": "address"
        },
        {
          "name": "_tokenId",
          "type": "uint256"
        }
      ],
      "name": "approve",
      "outputs": [],
      "payable": false,
      "stateMutability": "nonpayable",
      "type": "function"
    },
    {
      "constant": true,
      "inputs": [],
      "name": "isLinked",
      "outputs": [
        {
          "name": "",
          "type": "bool"
        }
      ],
      "payable": false,
      "stateMutability": "view",
      "type": "function"
    },
    {
      "constant": true,
      "inputs": [],
      "name": "totalSupply",
      "outputs": [
        {
          "name": "",
          "type": "uint256"
        }
      ],
      "payable": false,
      "stateMutability": "view",
      "type": "function"
    },
    {
      "constant": false,
      "inputs": [
        {
          "name": "_from",
          "type": "address"
        },
        {
          "name": "_to",
          "type": "address"
        },
        {
          "name": "_tokenId",
          "type": "uint256"
        }
      ],
      "name": "transferFrom",
      "outputs": [],
      "payable": false,
      "stateMutability": "nonpayable",
      "type": "function"
    },
    {
      "constant": true,
      "inputs": [
        {
          "name": "_owner",
          "type": "address"
        },
        {
          "name": "_index",
          "type": "uint256"
        }
      ],
      "name": "tokenOfOwnerByIndex",
      "outputs": [
        {
          "name": "",
          "type": "uint256"
        }
      ],
      "payable": false,
      "stateMutability": "view",
      "type": "function"
    },
    {
      "constant": false,
      "inputs": [
        {
          "name": "_address",
          "type": "address"
        }
      ],
      "name": "setCardBaseContract",
      "outputs": [],
      "payable": false,
      "stateMutability": "nonpayable",
      "type": "function"
    },
    {
      "constant": true,
      "inputs": [
        {
          "name": "_address",
          "type": "address"
        }
      ],
      "name": "isSharedWith",
      "outputs": [
        {
          "name": "",
          "type": "bool"
        }
      ],
      "payable": false,
      "stateMutability": "view",
      "type": "function"
    },
    {
      "constant": false,
      "inputs": [
        {
          "name": "_address",
          "type": "address"
        }
      ],
      "name": "setRepositoryContract",
      "outputs": [],
      "payable": false,
      "stateMutability": "nonpayable",
      "type": "function"
    },
    {
      "constant": false,
      "inputs": [
        {
          "name": "_to",
          "type": "address"
        },
        {
          "name": "_tokenId",
          "type": "uint256"
        }
      ],
      "name": "mint",
      "outputs": [],
      "payable": false,
      "stateMutability": "nonpayable",
      "type": "function"
    },
    {
      "constant": false,
      "inputs": [
        {
          "name": "_from",
          "type": "address"
        },
        {
          "name": "_to",
          "type": "address"
        },
        {
          "name": "_tokenId",
          "type": "uint256"
        }
      ],
      "name": "safeTransferFrom",
      "outputs": [],
      "payable": false,
      "stateMutability": "nonpayable",
      "type": "function"
    },
    {
      "constant": true,
      "inputs": [
        {
          "name": "_tokenId",
          "type": "uint256"
        }
      ],
      "name": "exists",
      "outputs": [
        {
          "name": "",
          "type": "bool"
        }
      ],
      "payable": false,
      "stateMutability": "view",
      "type": "function"
    },
    {
      "constant": true,
      "inputs": [
        {
          "name": "_index",
          "type": "uint256"
        }
      ],
      "name": "tokenByIndex",
      "outputs": [
        {
          "name": "",
          "type": "uint256"
        }
      ],
      "payable": false,
      "stateMutability": "view",
      "type": "function"
    },
    {
      "constant": false,
      "inputs": [
        {
          "name": "_address",
          "type": "address"
        },
        {
          "name": "_isShared",
          "type": "bool"
        },
        {
          "name": "_linked",
          "type": "bool"
        }
      ],
      "name": "setSharingWith",
      "outputs": [],
      "payable": false,
      "stateMutability": "nonpayable",
      "type": "function"
    },
    {
      "constant": false,
      "inputs": [
        {
          "name": "_address",
          "type": "address"
        }
      ],
      "name": "setCardPackageContract",
      "outputs": [],
      "payable": false,
      "stateMutability": "nonpayable",
      "type": "function"
    },
    {
      "constant": true,
      "inputs": [
        {
          "name": "_tokenId",
          "type": "uint256"
        }
      ],
      "name": "ownerOf",
      "outputs": [
        {
          "name": "",
          "type": "address"
        }
      ],
      "payable": false,
      "stateMutability": "view",
      "type": "function"
    },
    {
      "constant": true,
      "inputs": [
        {
          "name": "_owner",
          "type": "address"
        }
      ],
      "name": "balanceOf",
      "outputs": [
        {
          "name": "",
          "type": "uint256"
        }
      ],
      "payable": false,
      "stateMutability": "view",
      "type": "function"
    },
    {
      "constant": false,
      "inputs": [],
      "name": "acceptOwnership",
      "outputs": [],
      "payable": false,
      "stateMutability": "nonpayable",
      "type": "function"
    },
    {
      "constant": true,
      "inputs": [],
      "name": "owner",
      "outputs": [
        {
          "name": "",
          "type": "address"
        }
      ],
      "payable": false,
      "stateMutability": "view",
      "type": "function"
    },
    {
      "constant": true,
      "inputs": [],
      "name": "symbol",
      "outputs": [
        {
          "name": "",
          "type": "string"
        }
      ],
      "payable": false,
      "stateMutability": "view",
      "type": "function"
    },
    {
      "constant": false,
      "inputs": [
        {
          "name": "_address",
          "type": "address"
        }
      ],
      "name": "setSettingsContract",
      "outputs": [],
      "payable": false,
      "stateMutability": "nonpayable",
      "type": "function"
    },
    {
      "constant": false,
      "inputs": [
        {
          "name": "_to",
          "type": "address"
        },
        {
          "name": "_approved",
          "type": "bool"
        }
      ],
      "name": "setApprovalForAll",
      "outputs": [],
      "payable": false,
      "stateMutability": "nonpayable",
      "type": "function"
    },
    {
      "constant": false,
      "inputs": [
        {
          "name": "_from",
          "type": "address"
        },
        {
          "name": "_to",
          "type": "address"
        },
        {
          "name": "_tokenId",
          "type": "uint256"
        },
        {
          "name": "_data",
          "type": "bytes"
        }
      ],
      "name": "safeTransferFrom",
      "outputs": [],
      "payable": false,
      "stateMutability": "nonpayable",
      "type": "function"
    },
    {
      "constant": false,
      "inputs": [
        {
          "name": "_address",
          "type": "address"
        }
      ],
      "name": "setCardContract",
      "outputs": [],
      "payable": false,
      "stateMutability": "nonpayable",
      "type": "function"
    },
    {
      "constant": true,
      "inputs": [],
      "name": "newOwner",
      "outputs": [
        {
          "name": "",
          "type": "address"
        }
      ],
      "payable": false,
      "stateMutability": "view",
      "type": "function"
    },
    {
      "constant": true,
      "inputs": [
        {
          "name": "_owner",
          "type": "address"
        },
        {
          "name": "_operator",
          "type": "address"
        }
      ],
      "name": "isApprovedForAll",
      "outputs": [
        {
          "name": "",
          "type": "bool"
        }
      ],
      "payable": false,
      "stateMutability": "view",
      "type": "function"
    },
    {
      "constant": false,
      "inputs": [
        {
          "name": "_newOwner",
          "type": "address"
        }
      ],
      "name": "transferOwnership",
      "outputs": [],
      "payable": false,
      "stateMutability": "nonpayable",
      "type": "function"
    },
    {
      "anonymous": false,
      "inputs": [
        {
          "indexed": true,
          "name": "_from",
          "type": "address"
        },
        {
          "indexed": true,
          "name": "_to",
          "type": "address"
        }
      ],
      "name": "OwnershipTransferred",
      "type": "event"
    },
    {
      "anonymous": false,
      "inputs": [
        {
          "indexed": true,
          "name": "to",
          "type": "address"
        },
        {
          "indexed": false,
          "name": "amount",
          "type": "uint256"
        }
      ],
      "name": "MintFodr",
      "type": "event"
    },
    {
      "anonymous": false,
      "inputs": [
        {
          "indexed": true,
          "name": "to",
          "type": "address"
        },
        {
          "indexed": false,
          "name": "requestId",
          "type": "uint256"
        },
        {
          "indexed": false,
          "name": "amount",
          "type": "uint256"
        },
        {
          "indexed": false,
          "name": "currency",
          "type": "uint256"
        }
      ],
      "name": "TransferFunds",
      "type": "event"
    },
    {
      "anonymous": false,
      "inputs": [
        {
          "indexed": false,
          "name": "metedata",
          "type": "uint256"
        }
      ],
      "name": "CreateCardBase",
      "type": "event"
    },
    {
      "anonymous": false,
      "inputs": [
        {
          "indexed": true,
          "name": "to",
          "type": "address"
        },
        {
          "indexed": false,
          "name": "cardId",
          "type": "uint256"
        },
        {
          "indexed": false,
          "name": "metadata",
          "type": "uint256"
        }
      ],
      "name": "MintCardWithBaseId",
      "type": "event"
    },
    {
      "anonymous": false,
      "inputs": [
        {
          "indexed": true,
          "name": "to",
          "type": "address"
        },
        {
          "indexed": false,
          "name": "cardId",
          "type": "uint256"
        },
        {
          "indexed": false,
          "name": "burnedCardId",
          "type": "uint256"
        },
        {
          "indexed": false,
          "name": "metadata",
          "type": "uint256"
        }
      ],
      "name": "UpgradeCard",
      "type": "event"
    },
    {
      "anonymous": false,
      "inputs": [
        {
          "indexed": true,
          "name": "to",
          "type": "address"
        },
        {
          "indexed": false,
          "name": "packageId",
          "type": "uint256"
        },
        {
          "indexed": false,
          "name": "packageType",
          "type": "uint256"
        },
        {
          "indexed": false,
          "name": "currency",
          "type": "uint256"
        },
        {
          "indexed": false,
          "name": "price",
          "type": "uint256"
        }
      ],
      "name": "BuyPackage",
      "type": "event"
    },
    {
      "anonymous": false,
      "inputs": [
        {
          "indexed": true,
          "name": "to",
          "type": "address"
        },
        {
          "indexed": false,
          "name": "currency",
          "type": "uint256"
        },
        {
          "indexed": false,
          "name": "cardId",
          "type": "uint256"
        },
        {
          "indexed": false,
          "name": "startPrice",
          "type": "uint256"
        },
        {
          "indexed": false,
          "name": "endPrice",
          "type": "uint256"
        },
        {
          "indexed": false,
          "name": "duration",
          "type": "uint256"
        }
      ],
      "name": "CreatAuction",
      "type": "event"
    },
    {
      "anonymous": false,
      "inputs": [
        {
          "indexed": true,
          "name": "to",
          "type": "address"
        },
        {
          "indexed": false,
          "name": "cardId",
          "type": "uint256"
        }
      ],
      "name": "CancelAuction",
      "type": "event"
    },
    {
      "anonymous": false,
      "inputs": [
        {
          "indexed": true,
          "name": "from",
          "type": "address"
        },
        {
          "indexed": true,
          "name": "to",
          "type": "address"
        },
        {
          "indexed": false,
          "name": "cardId",
          "type": "uint256"
        },
        {
          "indexed": false,
          "name": "biddedAmount",
          "type": "uint256"
        },
        {
          "indexed": false,
          "name": "currency",
          "type": "uint256"
        }
      ],
      "name": "Bid",
      "type": "event"
    },
    {
      "anonymous": false,
      "inputs": [
        {
          "indexed": true,
          "name": "to",
          "type": "address"
        },
        {
          "indexed": false,
          "name": "tokenId",
          "type": "uint256"
        }
      ],
      "name": "Mint",
      "type": "event"
    },
    {
      "anonymous": false,
      "inputs": [
        {
          "indexed": false,
          "name": "tokenId",
          "type": "uint256"
        }
      ],
      "name": "Burn",
      "type": "event"
    },
    {
      "anonymous": false,
      "inputs": [
        {
          "indexed": true,
          "name": "from",
          "type": "address"
        },
        {
          "indexed": true,
          "name": "to",
          "type": "address"
        },
        {
          "indexed": false,
          "name": "tokenId",
          "type": "uint256"
        }
      ],
      "name": "Transfer",
      "type": "event"
    },
    {
      "anonymous": false,
      "inputs": [
        {
          "indexed": true,
          "name": "owner",
          "type": "address"
        },
        {
          "indexed": true,
          "name": "approved",
          "type": "address"
        },
        {
          "indexed": false,
          "name": "tokenId",
          "type": "uint256"
        }
      ],
      "name": "Approval",
      "type": "event"
    },
    {
      "anonymous": false,
      "inputs": [
        {
          "indexed": true,
          "name": "owner",
          "type": "address"
        },
        {
          "indexed": true,
          "name": "operator",
          "type": "address"
        },
        {
          "indexed": false,
          "name": "approved",
          "type": "bool"
        }
      ],
      "name": "ApprovalForAll",
      "type": "event"
    },
    {
      "constant": false,
      "inputs": [
        {
          "name": "_to",
          "type": "address"
        },
        {
          "name": "_amount",
          "type": "uint256"
        }
      ],
      "name": "mintFodr",
      "outputs": [],
      "payable": false,
      "stateMutability": "nonpayable",
      "type": "function"
    },
    {
      "constant": false,
      "inputs": [
        {
          "name": "_to",
          "type": "address"
        },
        {
          "name": "_requestId",
          "type": "uint256"
        },
        {
          "name": "_amount",
          "type": "uint256"
        },
        {
          "name": "_currency",
          "type": "uint256"
        }
      ],
      "name": "transferFunds",
      "outputs": [],
      "payable": false,
      "stateMutability": "nonpayable",
      "type": "function"
    },
    {
      "constant": false,
      "inputs": [
        {
          "name": "_metedata",
          "type": "uint256"
        }
      ],
      "name": "createCardBase",
      "outputs": [],
      "payable": false,
      "stateMutability": "nonpayable",
      "type": "function"
    },
    {
      "constant": false,
      "inputs": [
        {
          "name": "_to",
          "type": "address"
        },
        {
          "name": "_baseId",
          "type": "uint256"
        }
      ],
      "name": "mintCardWithBaseId",
      "outputs": [],
      "payable": false,
      "stateMutability": "nonpayable",
      "type": "function"
    },
    {
      "constant": false,
      "inputs": [
        {
          "name": "_cardId",
          "type": "uint256"
        },
        {
          "name": "_burnedCardId",
          "type": "uint256"
        }
      ],
      "name": "upgradeCard",
      "outputs": [],
      "payable": false,
      "stateMutability": "nonpayable",
      "type": "function"
    },
    {
      "constant": true,
      "inputs": [
        {
          "name": "_packageType",
          "type": "uint256"
        },
        {
          "name": "_currencyType",
          "type": "uint256"
        }
      ],
      "name": "getPackagePrice",
      "outputs": [
        {
          "name": "",
          "type": "uint256"
        }
      ],
      "payable": false,
      "stateMutability": "view",
      "type": "function"
    },
    {
      "constant": false,
      "inputs": [
        {
          "name": "_packageType",
          "type": "uint256"
        },
        {
          "name": "_currency",
          "type": "uint256"
        }
      ],
      "name": "buyPackage",
      "outputs": [],
      "payable": true,
      "stateMutability": "payable",
      "type": "function"
    },
    {
      "constant": false,
      "inputs": [
        {
          "name": "_currency",
          "type": "uint256"
        },
        {
          "name": "_cardId",
          "type": "uint256"
        },
        {
          "name": "_startPrice",
          "type": "uint256"
        },
        {
          "name": "_endPrice",
          "type": "uint256"
        },
        {
          "name": "_duration",
          "type": "uint256"
        }
      ],
      "name": "createAuction",
      "outputs": [],
      "payable": false,
      "stateMutability": "nonpayable",
      "type": "function"
    },
    {
      "constant": false,
      "inputs": [
        {
          "name": "_cardId",
          "type": "uint256"
        }
      ],
      "name": "cancelAuction",
      "outputs": [],
      "payable": false,
      "stateMutability": "nonpayable",
      "type": "function"
    },
    {
      "constant": false,
      "inputs": [
        {
          "name": "_cardId",
          "type": "uint256"
        }
      ],
      "name": "bid",
      "outputs": [],
      "payable": true,
      "stateMutability": "payable",
      "type": "function"
    },
    {
      "constant": true,
      "inputs": [
        {
          "name": "_currency",
          "type": "uint256"
        }
      ],
      "name": "getTokenAllowance",
      "outputs": [
        {
          "name": "",
          "type": "uint256"
        }
      ],
      "payable": false,
      "stateMutability": "view",
      "type": "function"
    },
    {
      "constant": true,
      "inputs": [
        {
          "name": "_cardId",
          "type": "uint256"
        }
      ],
      "name": "getCardInfo",
      "outputs": [
        {
          "name": "",
          "type": "uint256"
        }
      ],
      "payable": false,
      "stateMutability": "view",
      "type": "function"
    }
  ],
  "bytecode": "0x60806040526107d06014556107d060155566038d7ea4c6800060165533600460006101000a81548173ffffffffffffffffffffffffffffffffffffffff021916908373ffffffffffffffffffffffffffffffffffffffff1602179055506001600660003373ffffffffffffffffffffffffffffffffffffffff1673ffffffffffffffffffffffffffffffffffffffff16815260200190815260200160002060006101000a81548160ff0219169083151502179055506040805190810160405280600d81526020017f57696c64616c6f20546f6b656e00000000000000000000000000000000000000815250600890805190602001906200010192919062000156565b506040805190810160405280600e81526020017f57696c64616c6f2053796d626f6c000000000000000000000000000000000000815250600990805190602001906200014f92919062000156565b5062000205565b828054600181600116156101000203166002900490600052602060002090601f016020900481019282601f106200019957805160ff1916838001178555620001ca565b82800160010185558215620001ca579182015b82811115620001c9578251825591602001919060010190620001ac565b5b509050620001d99190620001dd565b5090565b6200020291905b80821115620001fe576000816000905550600101620001e4565b5090565b90565b61576880620002156000396000f3006080604052600436106101f9576000357c0100000000000000000000000000000000000000000000000000000000900463ffffffff168063023924c7146101fe57806306fdde0314610241578063081812fc146102d1578063095ea7b31461033e57806309fa1f901461038b5780631380a34a146103ba57806318160ddd1461040757806320995b231461043257806323b872dd1461049357806325b52acf146105005780632f745c591461052a57806335f26ef81461058b57806338eef047146105ce5780633ade2e9f1461062957806340c10f191461066c57806342842e0e146106b9578063454a2ab3146107265780634f558e79146107465780634f6ccce71461078b578063558fe357146107cc57806358de8e38146108275780636352211e1461086a57806370a08231146108d757806379ba50971461092e5780638a157df3146109455780638da5cb5b1461099a5780638f4248d5146109f157806395d89b4114610a1e57806396b5a75514610aae57806396d7529a14610adb578063970129be14610b1e578063a22cb46514610b5f578063b88d4fde14610bae578063bcbdcd6214610c61578063c030d8b814610c98578063cfcc8c7c14610cdb578063d4ee1d9014610d28578063e1d8d81414610d7f578063e985e9c514610dc0578063ea83b84314610e3b578063f2fde38b14610e86575b600080fd5b34801561020a57600080fd5b5061023f600480360381019080803573ffffffffffffffffffffffffffffffffffffffff169060200190929190505050610ec9565b005b34801561024d57600080fd5b50610256610fd2565b6040518080602001828103825283818151815260200191508051906020019080838360005b8381101561029657808201518184015260208101905061027b565b50505050905090810190601f1680156102c35780820380516001836020036101000a031916815260200191505b509250505060405180910390f35b3480156102dd57600080fd5b506102fc60048036038101908080359060200190929190505050611074565b604051808273ffffffffffffffffffffffffffffffffffffffff1673ffffffffffffffffffffffffffffffffffffffff16815260200191505060405180910390f35b34801561034a57600080fd5b50610389600480360381019080803573ffffffffffffffffffffffffffffffffffffffff169060200190929190803590602001909291905050506110b1565b005b34801561039757600080fd5b506103a0611277565b604051808215151515815260200191505060405180910390f35b3480156103c657600080fd5b50610405600480360381019080803573ffffffffffffffffffffffffffffffffffffffff1690602001909291908035906020019092919050505061128e565b005b34801561041357600080fd5b5061041c6114fe565b6040518082815260200191505060405180910390f35b34801561043e57600080fd5b50610491600480360381019080803573ffffffffffffffffffffffffffffffffffffffff16906020019092919080359060200190929190803590602001909291908035906020019092919050505061150b565b005b34801561049f57600080fd5b506104fe600480360381019080803573ffffffffffffffffffffffffffffffffffffffff169060200190929190803573ffffffffffffffffffffffffffffffffffffffff16906020019092919080359060200190929190505050611936565b005b6105286004803603810190808035906020019092919080359060200190929190505050611a4d565b005b34801561053657600080fd5b50610575600480360381019080803573ffffffffffffffffffffffffffffffffffffffff16906020019092919080359060200190929190505050611f86565b6040518082815260200191505060405180910390f35b34801561059757600080fd5b506105cc600480360381019080803573ffffffffffffffffffffffffffffffffffffffff169060200190929190505050611ffd565b005b3480156105da57600080fd5b5061060f600480360381019080803573ffffffffffffffffffffffffffffffffffffffff169060200190929190505050612106565b604051808215151515815260200191505060405180910390f35b34801561063557600080fd5b5061066a600480360381019080803573ffffffffffffffffffffffffffffffffffffffff16906020019092919050505061215c565b005b34801561067857600080fd5b506106b7600480360381019080803573ffffffffffffffffffffffffffffffffffffffff16906020019092919080359060200190929190505050612265565b005b3480156106c557600080fd5b50610724600480360381019080803573ffffffffffffffffffffffffffffffffffffffff169060200190929190803573ffffffffffffffffffffffffffffffffffffffff16906020019092919080359060200190929190505050612387565b005b610744600480360381019080803590602001909291905050506123bf565b005b34801561075257600080fd5b5061077160048036038101908080359060200190929190505050612b66565b604051808215151515815260200191505060405180910390f35b34801561079757600080fd5b506107b660048036038101908080359060200190929190505050612bd7565b6040518082815260200191505060405180910390f35b3480156107d857600080fd5b50610825600480360381019080803573ffffffffffffffffffffffffffffffffffffffff169060200190929190803515159060200190929190803515159060200190929190505050612c0f565b005b34801561083357600080fd5b50610868600480360381019080803573ffffffffffffffffffffffffffffffffffffffff169060200190929190505050612e10565b005b34801561087657600080fd5b5061089560048036038101908080359060200190929190505050612f19565b604051808273ffffffffffffffffffffffffffffffffffffffff1673ffffffffffffffffffffffffffffffffffffffff16815260200191505060405180910390f35b3480156108e357600080fd5b50610918600480360381019080803573ffffffffffffffffffffffffffffffffffffffff169060200190929190505050612f96565b6040518082815260200191505060405180910390f35b34801561093a57600080fd5b5061094361301a565b005b34801561095157600080fd5b506109986004803603810190808035906020019092919080359060200190929190803590602001909291908035906020019092919080359060200190929190505050613224565b005b3480156109a657600080fd5b506109af613572565b604051808273ffffffffffffffffffffffffffffffffffffffff1673ffffffffffffffffffffffffffffffffffffffff16815260200191505060405180910390f35b3480156109fd57600080fd5b50610a1c60048036038101908080359060200190929190505050613598565b005b348015610a2a57600080fd5b50610a3361377b565b6040518080602001828103825283818151815260200191508051906020019080838360005b83811015610a73578082015181840152602081019050610a58565b50505050905090810190601f168015610aa05780820380516001836020036101000a031916815260200191505b509250505060405180910390f35b348015610aba57600080fd5b50610ad96004803603810190808035906020019092919050505061381d565b005b348015610ae757600080fd5b50610b1c600480360381019080803573ffffffffffffffffffffffffffffffffffffffff169060200190929190505050613a51565b005b348015610b2a57600080fd5b50610b4960048036038101908080359060200190929190505050613b5a565b6040518082815260200191505060405180910390f35b348015610b6b57600080fd5b50610bac600480360381019080803573ffffffffffffffffffffffffffffffffffffffff169060200190929190803515159060200190929190505050613c2f565b005b348015610bba57600080fd5b50610c5f600480360381019080803573ffffffffffffffffffffffffffffffffffffffff169060200190929190803573ffffffffffffffffffffffffffffffffffffffff16906020019092919080359060200190929190803590602001908201803590602001908080601f0160208091040260200160405190810160405280939291908181526020018383808284378201915050505050509192919290505050613d6b565b005b348015610c6d57600080fd5b50610c966004803603810190808035906020019092919080359060200190929190505050613daa565b005b348015610ca457600080fd5b50610cd9600480360381019080803573ffffffffffffffffffffffffffffffffffffffff16906020019092919050505061417a565b005b348015610ce757600080fd5b50610d26600480360381019080803573ffffffffffffffffffffffffffffffffffffffff16906020019092919080359060200190929190505050614283565b005b348015610d3457600080fd5b50610d3d6144b2565b604051808273ffffffffffffffffffffffffffffffffffffffff1673ffffffffffffffffffffffffffffffffffffffff16815260200191505060405180910390f35b348015610d8b57600080fd5b50610daa600480360381019080803590602001909291905050506144d8565b6040518082815260200191505060405180910390f35b348015610dcc57600080fd5b50610e21600480360381019080803573ffffffffffffffffffffffffffffffffffffffff169060200190929190803573ffffffffffffffffffffffffffffffffffffffff1690602001909291905050506146b7565b604051808215151515815260200191505060405180910390f35b348015610e4757600080fd5b50610e70600480360381019080803590602001909291908035906020019092919050505061474b565b6040518082815260200191505060405180910390f35b348015610e9257600080fd5b50610ec7600480360381019080803573ffffffffffffffffffffffffffffffffffffffff169060200190929190505050614829565b005b600460009054906101000a900473ffffffffffffffffffffffffffffffffffffffff1673ffffffffffffffffffffffffffffffffffffffff163373ffffffffffffffffffffffffffffffffffffffff16141515610f8e576040517f08c379a000000000000000000000000000000000000000000000000000000000815260040180806020018281038252600b8152602001807f4f776e65643a206572723100000000000000000000000000000000000000000081525060200191505060405180910390fd5b80600e60006101000a81548173ffffffffffffffffffffffffffffffffffffffff021916908373ffffffffffffffffffffffffffffffffffffffff16021790555050565b606060088054600181600116156101000203166002900480601f01602080910402602001604051908101604052809291908181526020018280546001816001161561010002031660029004801561106a5780601f1061103f5761010080835404028352916020019161106a565b820191906000526020600020905b81548152906001019060200180831161104d57829003601f168201915b5050505050905090565b60006001600083815260200190815260200160002060009054906101000a900473ffffffffffffffffffffffffffffffffffffffff169050919050565b60006110bc82612f19565b90508073ffffffffffffffffffffffffffffffffffffffff168373ffffffffffffffffffffffffffffffffffffffff16141515156110f957600080fd5b8073ffffffffffffffffffffffffffffffffffffffff163373ffffffffffffffffffffffffffffffffffffffff161480611139575061113881336146b7565b5b151561114457600080fd5b600073ffffffffffffffffffffffffffffffffffffffff1661116583611074565b73ffffffffffffffffffffffffffffffffffffffff161415806111b55750600073ffffffffffffffffffffffffffffffffffffffff168373ffffffffffffffffffffffffffffffffffffffff1614155b1561127257826001600084815260200190815260200160002060006101000a81548173ffffffffffffffffffffffffffffffffffffffff021916908373ffffffffffffffffffffffffffffffffffffffff1602179055508273ffffffffffffffffffffffffffffffffffffffff168173ffffffffffffffffffffffffffffffffffffffff167f8c5be1e5ebec7d5bd14f71427d1e84f3dd0314c0f7b2291e5b200ac8c7c3b925846040518082815260200191505060405180910390a35b505050565b6000600760009054906101000a900460ff16905090565b6000806000601360009054906101000a900473ffffffffffffffffffffffffffffffffffffffff1673ffffffffffffffffffffffffffffffffffffffff1663de68a5e96040518163ffffffff167c0100000000000000000000000000000000000000000000000000000000028152600401602060405180830381600087803b15801561131957600080fd5b505af115801561132d573d6000803e3d6000fd5b505050506040513d602081101561134357600080fd5b810190808051906020019092919050505090508073ffffffffffffffffffffffffffffffffffffffff163373ffffffffffffffffffffffffffffffffffffffff1614151561139057600080fd5b601160009054906101000a900473ffffffffffffffffffffffffffffffffffffffff1673ffffffffffffffffffffffffffffffffffffffff16631380a34a86866040518363ffffffff167c0100000000000000000000000000000000000000000000000000000000028152600401808373ffffffffffffffffffffffffffffffffffffffff1673ffffffffffffffffffffffffffffffffffffffff168152602001828152602001925050506040805180830381600087803b15801561145457600080fd5b505af1158015611468573d6000803e3d6000fd5b505050506040513d604081101561147e57600080fd5b81019080805190602001909291908051906020019092919050505080935081945050508473ffffffffffffffffffffffffffffffffffffffff167fc4576a28a9595c451162be9fc65a2eb26d2efcfe171012b9fec59102bba4173b8484604051808381526020018281526020019250505060405180910390a25050505050565b6000600c80549050905090565b6000601360009054906101000a900473ffffffffffffffffffffffffffffffffffffffff1673ffffffffffffffffffffffffffffffffffffffff1663de68a5e96040518163ffffffff167c0100000000000000000000000000000000000000000000000000000000028152600401602060405180830381600087803b15801561159357600080fd5b505af11580156115a7573d6000803e3d6000fd5b505050506040513d60208110156115bd57600080fd5b810190808051906020019092919050505090508073ffffffffffffffffffffffffffffffffffffffff163373ffffffffffffffffffffffffffffffffffffffff1614151561160a57600080fd5b601260009054906101000a900473ffffffffffffffffffffffffffffffffffffffff1673ffffffffffffffffffffffffffffffffffffffff1663ef4ba815836040518263ffffffff167c010000000000000000000000000000000000000000000000000000000002815260040180828152602001915050602060405180830381600087803b15801561169b57600080fd5b505af11580156116af573d6000803e3d6000fd5b505050506040513d60208110156116c557600080fd5b810190808051906020019092919050505015156116e157600080fd5b600260038111156116ee57fe5b8214156117d757601260009054906101000a900473ffffffffffffffffffffffffffffffffffffffff1673ffffffffffffffffffffffffffffffffffffffff1663cfcc8c7c86856040518363ffffffff167c0100000000000000000000000000000000000000000000000000000000028152600401808373ffffffffffffffffffffffffffffffffffffffff1673ffffffffffffffffffffffffffffffffffffffff16815260200182815260200192505050600060405180830381600087803b1580156117ba57600080fd5b505af11580156117ce573d6000803e3d6000fd5b505050506118d1565b6003808111156117e357fe5b8214156118d057601260009054906101000a900473ffffffffffffffffffffffffffffffffffffffff1673ffffffffffffffffffffffffffffffffffffffff166396c0ec558684866040518463ffffffff167c0100000000000000000000000000000000000000000000000000000000028152600401808473ffffffffffffffffffffffffffffffffffffffff1673ffffffffffffffffffffffffffffffffffffffff1681526020018381526020018281526020019350505050600060405180830381600087803b1580156118b757600080fd5b505af11580156118cb573d6000803e3d6000fd5b505050505b5b8473ffffffffffffffffffffffffffffffffffffffff167f97e1b1e75dea4126b5b8547664c643965a7c18cd526d69b5bbae9688277d4e0485858560405180848152602001838152602001828152602001935050505060405180910390a25050505050565b806119413382614932565b151561194c57600080fd5b600073ffffffffffffffffffffffffffffffffffffffff168473ffffffffffffffffffffffffffffffffffffffff161415151561198857600080fd5b600073ffffffffffffffffffffffffffffffffffffffff168373ffffffffffffffffffffffffffffffffffffffff16141515156119c457600080fd5b6119ce84836149c7565b6119d88483614b30565b6119e28383614d48565b8273ffffffffffffffffffffffffffffffffffffffff168473ffffffffffffffffffffffffffffffffffffffff167fddf252ad1be2c89b69c2b068fc378daa952ba7f163c4a11628f55a4df523b3ef846040518082815260200191505060405180910390a350505050565b6000806000601360009054906101000a900473ffffffffffffffffffffffffffffffffffffffff1673ffffffffffffffffffffffffffffffffffffffff16636805b84b6040518163ffffffff167c0100000000000000000000000000000000000000000000000000000000028152600401602060405180830381600087803b158015611ad857600080fd5b505af1158015611aec573d6000803e3d6000fd5b505050506040513d6020811015611b0257600080fd5b8101908080519060200190929190505050905080151560001515141515611b2857600080fd5b601260009054906101000a900473ffffffffffffffffffffffffffffffffffffffff1673ffffffffffffffffffffffffffffffffffffffff1663ef4ba815856040518263ffffffff167c010000000000000000000000000000000000000000000000000000000002815260040180828152602001915050602060405180830381600087803b158015611bb957600080fd5b505af1158015611bcd573d6000803e3d6000fd5b505050506040513d6020811015611be357600080fd5b81019080805190602001909291905050501515611bff57600080fd5b600f60009054906101000a900473ffffffffffffffffffffffffffffffffffffffff1673ffffffffffffffffffffffffffffffffffffffff16631ff31d4d3387876040518463ffffffff167c0100000000000000000000000000000000000000000000000000000000028152600401808473ffffffffffffffffffffffffffffffffffffffff1673ffffffffffffffffffffffffffffffffffffffff16815260200183815260200182815260200193505050506040805180830381600087803b158015611ccb57600080fd5b505af1158015611cdf573d6000803e3d6000fd5b505050506040513d6040811015611cf557600080fd5b8101908080519060200190929190805190602001909291905050509250925060016003811115611d2157fe5b841415611dd757348311151515611d3757600080fd5b601260009054906101000a900473ffffffffffffffffffffffffffffffffffffffff1673ffffffffffffffffffffffffffffffffffffffff168360405160006040518083038185875af1925050501515611d9057600080fd5b34831015611dd2573373ffffffffffffffffffffffffffffffffffffffff1683340360405160006040518083038185875af1925050501515611dd157600080fd5b5b611f19565b60026003811115611de457fe5b841415611f1857601260009054906101000a900473ffffffffffffffffffffffffffffffffffffffff1673ffffffffffffffffffffffffffffffffffffffff166399c6d2de3386866040518463ffffffff167c0100000000000000000000000000000000000000000000000000000000028152600401808473ffffffffffffffffffffffffffffffffffffffff1673ffffffffffffffffffffffffffffffffffffffff1681526020018381526020018281526020019350505050600060405180830381600087803b158015611eb857600080fd5b505af1158015611ecc573d6000803e3d6000fd5b505050503373ffffffffffffffffffffffffffffffffffffffff166108fc349081150290604051600060405180830381858888f19350505050158015611f16573d6000803e3d6000fd5b505b5b3373ffffffffffffffffffffffffffffffffffffffff167f369e3fb440c43315b2809a47f55b43b2ae283dff614e871299631748217d6b65838787876040518085815260200184815260200183815260200182815260200194505050505060405180910390a25050505050565b6000611f9183612f96565b82101515611f9e57600080fd5b600a60008473ffffffffffffffffffffffffffffffffffffffff1673ffffffffffffffffffffffffffffffffffffffff16815260200190815260200160002082815481101515611fea57fe5b9060005260206000200154905092915050565b600460009054906101000a900473ffffffffffffffffffffffffffffffffffffffff1673ffffffffffffffffffffffffffffffffffffffff163373ffffffffffffffffffffffffffffffffffffffff161415156120c2576040517f08c379a000000000000000000000000000000000000000000000000000000000815260040180806020018281038252600b8152602001807f4f776e65643a206572723100000000000000000000000000000000000000000081525060200191505060405180910390fd5b80601060006101000a81548173ffffffffffffffffffffffffffffffffffffffff021916908373ffffffffffffffffffffffffffffffffffffffff16021790555050565b6000600660008373ffffffffffffffffffffffffffffffffffffffff1673ffffffffffffffffffffffffffffffffffffffff16815260200190815260200160002060009054906101000a900460ff169050919050565b600460009054906101000a900473ffffffffffffffffffffffffffffffffffffffff1673ffffffffffffffffffffffffffffffffffffffff163373ffffffffffffffffffffffffffffffffffffffff16141515612221576040517f08c379a000000000000000000000000000000000000000000000000000000000815260040180806020018281038252600b8152602001807f4f776e65643a206572723100000000000000000000000000000000000000000081525060200191505060405180910390fd5b80601260006101000a81548173ffffffffffffffffffffffffffffffffffffffff021916908373ffffffffffffffffffffffffffffffffffffffff16021790555050565b61226e33612106565b15156122e2576040517f08c379a000000000000000000000000000000000000000000000000000000000815260040180806020018281038252600c8152602001807f5368617265643a2065727231000000000000000000000000000000000000000081525060200191505060405180910390fd5b6122ec8282614e1f565b600c80549050600d600083815260200190815260200160002081905550600c8190806001815401808255809150509060018203906000526020600020016000909192909190915055508173ffffffffffffffffffffffffffffffffffffffff167f0f6798a560793a54c3bcfe86a93cde1e73087d944c0ea20544137d4121396885826040518082815260200191505060405180910390a25050565b806123923382614932565b151561239d57600080fd5b6123b98484846020604051908101604052806000815250613d6b565b50505050565b6000806000806000601360009054906101000a900473ffffffffffffffffffffffffffffffffffffffff1673ffffffffffffffffffffffffffffffffffffffff16636805b84b6040518163ffffffff167c0100000000000000000000000000000000000000000000000000000000028152600401602060405180830381600087803b15801561244d57600080fd5b505af1158015612461573d6000803e3d6000fd5b505050506040513d602081101561247757600080fd5b810190808051906020019092919050505090508015156000151514151561249d57600080fd5b600e60009054906101000a900473ffffffffffffffffffffffffffffffffffffffff1673ffffffffffffffffffffffffffffffffffffffff166319168e49876040518263ffffffff167c010000000000000000000000000000000000000000000000000000000002815260040180828152602001915050606060405180830381600087803b15801561252e57600080fd5b505af1158015612542573d6000803e3d6000fd5b505050506040513d606081101561255857600080fd5b81019080805190602001909291908051906020019092919080519060200190929190505050809650819750829450505050601360009054906101000a900473ffffffffffffffffffffffffffffffffffffffff1673ffffffffffffffffffffffffffffffffffffffff1663cb8a69936040518163ffffffff167c0100000000000000000000000000000000000000000000000000000000028152600401602060405180830381600087803b15801561260f57600080fd5b505af1158015612623573d6000803e3d6000fd5b505050506040513d602081101561263957600080fd5b81019080805190602001909291905050509250601454831115151561265d57600080fd5b6126846127106126768588614ecf90919063ffffffff16565b614f6990919063ffffffff16565b92506001600381111561269357fe5b841415612782573485111515156126a957600080fd5b601260009054906101000a900473ffffffffffffffffffffffffffffffffffffffff1673ffffffffffffffffffffffffffffffffffffffff168360405160006040518083038185875af192505050151561270257600080fd5b8173ffffffffffffffffffffffffffffffffffffffff1683860360405160006040518083038185875af192505050151561273b57600080fd5b3485101561277d573373ffffffffffffffffffffffffffffffffffffffff1685340360405160006040518083038185875af192505050151561277c57600080fd5b5b6129df565b6002600381111561278f57fe5b8414156129de57601260009054906101000a900473ffffffffffffffffffffffffffffffffffffffff1673ffffffffffffffffffffffffffffffffffffffff166399c6d2de3386866040518463ffffffff167c0100000000000000000000000000000000000000000000000000000000028152600401808473ffffffffffffffffffffffffffffffffffffffff1673ffffffffffffffffffffffffffffffffffffffff1681526020018381526020018281526020019350505050600060405180830381600087803b15801561286357600080fd5b505af1158015612877573d6000803e3d6000fd5b50505050601260009054906101000a900473ffffffffffffffffffffffffffffffffffffffff1673ffffffffffffffffffffffffffffffffffffffff1663fe99049a338487878a036040518563ffffffff167c0100000000000000000000000000000000000000000000000000000000028152600401808573ffffffffffffffffffffffffffffffffffffffff1673ffffffffffffffffffffffffffffffffffffffff1681526020018473ffffffffffffffffffffffffffffffffffffffff1673ffffffffffffffffffffffffffffffffffffffff168152602001838152602001828152602001945050505050600060405180830381600087803b15801561297e57600080fd5b505af1158015612992573d6000803e3d6000fd5b505050503373ffffffffffffffffffffffffffffffffffffffff166108fc349081150290604051600060405180830381858888f193505050501580156129dc573d6000803e3d6000fd5b505b5b600e60009054906101000a900473ffffffffffffffffffffffffffffffffffffffff1673ffffffffffffffffffffffffffffffffffffffff166359d667a533886040518363ffffffff167c0100000000000000000000000000000000000000000000000000000000028152600401808373ffffffffffffffffffffffffffffffffffffffff1673ffffffffffffffffffffffffffffffffffffffff16815260200182815260200192505050600060405180830381600087803b158015612aa457600080fd5b505af1158015612ab8573d6000803e3d6000fd5b50505050612ae9600e60009054906101000a900473ffffffffffffffffffffffffffffffffffffffff163388612387565b3373ffffffffffffffffffffffffffffffffffffffff168273ffffffffffffffffffffffffffffffffffffffff167f74e28d0baab068af676cd969c0b16bc211ac963373132d91c7efd6c69de6098588888860405180848152602001838152602001828152602001935050505060405180910390a3505050505050565b60008060008084815260200190815260200160002060009054906101000a900473ffffffffffffffffffffffffffffffffffffffff169050600073ffffffffffffffffffffffffffffffffffffffff168173ffffffffffffffffffffffffffffffffffffffff161415915050919050565b6000612be16114fe565b82101515612bee57600080fd5b600c82815481101515612bfd57fe5b90600052602060002001549050919050565b600460009054906101000a900473ffffffffffffffffffffffffffffffffffffffff1673ffffffffffffffffffffffffffffffffffffffff163373ffffffffffffffffffffffffffffffffffffffff16141515612cd4576040517f08c379a000000000000000000000000000000000000000000000000000000000815260040180806020018281038252600b8152602001807f4f776e65643a206572723100000000000000000000000000000000000000000081525060200191505060405180910390fd5b60001515600760009054906101000a900460ff161515141515612cf657600080fd5b8273ffffffffffffffffffffffffffffffffffffffff163373ffffffffffffffffffffffffffffffffffffffff1614151515612d9a576040517f08c379a000000000000000000000000000000000000000000000000000000000815260040180806020018281038252600c8152602001807f5368617265643a2065727232000000000000000000000000000000000000000081525060200191505060405180910390fd5b80600760006101000a81548160ff02191690831515021790555081600660008573ffffffffffffffffffffffffffffffffffffffff1673ffffffffffffffffffffffffffffffffffffffff16815260200190815260200160002060006101000a81548160ff021916908315150217905550505050565b600460009054906101000a900473ffffffffffffffffffffffffffffffffffffffff1673ffffffffffffffffffffffffffffffffffffffff163373ffffffffffffffffffffffffffffffffffffffff16141515612ed5576040517f08c379a000000000000000000000000000000000000000000000000000000000815260040180806020018281038252600b8152602001807f4f776e65643a206572723100000000000000000000000000000000000000000081525060200191505060405180910390fd5b80600f60006101000a81548173ffffffffffffffffffffffffffffffffffffffff021916908373ffffffffffffffffffffffffffffffffffffffff16021790555050565b60008060008084815260200190815260200160002060009054906101000a900473ffffffffffffffffffffffffffffffffffffffff169050600073ffffffffffffffffffffffffffffffffffffffff168173ffffffffffffffffffffffffffffffffffffffff1614151515612f8d57600080fd5b80915050919050565b60008073ffffffffffffffffffffffffffffffffffffffff168273ffffffffffffffffffffffffffffffffffffffff1614151515612fd357600080fd5b600260008373ffffffffffffffffffffffffffffffffffffffff1673ffffffffffffffffffffffffffffffffffffffff168152602001908152602001600020549050919050565b600560009054906101000a900473ffffffffffffffffffffffffffffffffffffffff1673ffffffffffffffffffffffffffffffffffffffff163373ffffffffffffffffffffffffffffffffffffffff161415156130df576040517f08c379a000000000000000000000000000000000000000000000000000000000815260040180806020018281038252600b8152602001807f4f776e65643a206572723200000000000000000000000000000000000000000081525060200191505060405180910390fd5b600560009054906101000a900473ffffffffffffffffffffffffffffffffffffffff1673ffffffffffffffffffffffffffffffffffffffff16600460009054906101000a900473ffffffffffffffffffffffffffffffffffffffff1673ffffffffffffffffffffffffffffffffffffffff167f8be0079c531659141344cd1fd0a4f28419497f9722a3daafe3b4186f6b6457e060405160405180910390a3600560009054906101000a900473ffffffffffffffffffffffffffffffffffffffff16600460006101000a81548173ffffffffffffffffffffffffffffffffffffffff021916908373ffffffffffffffffffffffffffffffffffffffff1602179055506000600560006101000a81548173ffffffffffffffffffffffffffffffffffffffff021916908373ffffffffffffffffffffffffffffffffffffffff160217905550565b6000601360009054906101000a900473ffffffffffffffffffffffffffffffffffffffff1673ffffffffffffffffffffffffffffffffffffffff16636805b84b6040518163ffffffff167c0100000000000000000000000000000000000000000000000000000000028152600401602060405180830381600087803b1580156132ac57600080fd5b505af11580156132c0573d6000803e3d6000fd5b505050506040513d60208110156132d657600080fd5b81019080805190602001909291905050509050801515600015151415156132fc57600080fd5b601260009054906101000a900473ffffffffffffffffffffffffffffffffffffffff1673ffffffffffffffffffffffffffffffffffffffff1663ef4ba815876040518263ffffffff167c010000000000000000000000000000000000000000000000000000000002815260040180828152602001915050602060405180830381600087803b15801561338d57600080fd5b505af11580156133a1573d6000803e3d6000fd5b505050506040513d60208110156133b757600080fd5b810190808051906020019092919050505015156133d357600080fd5b6133ff600e60009054906101000a900473ffffffffffffffffffffffffffffffffffffffff16866110b1565b600e60009054906101000a900473ffffffffffffffffffffffffffffffffffffffff1673ffffffffffffffffffffffffffffffffffffffff1663791bb4ef3388888888886040518763ffffffff167c0100000000000000000000000000000000000000000000000000000000028152600401808773ffffffffffffffffffffffffffffffffffffffff1673ffffffffffffffffffffffffffffffffffffffff1681526020018681526020018581526020018481526020018381526020018281526020019650505050505050600060405180830381600087803b1580156134e457600080fd5b505af11580156134f8573d6000803e3d6000fd5b505050503373ffffffffffffffffffffffffffffffffffffffff167ffee386eb7c0843a6d94a2ecd6acc0643c86b5dfa1fa5aa54118f80561281539b8787878787604051808681526020018581526020018481526020018381526020018281526020019550505050505060405180910390a2505050505050565b600460009054906101000a900473ffffffffffffffffffffffffffffffffffffffff1681565b6000601360009054906101000a900473ffffffffffffffffffffffffffffffffffffffff1673ffffffffffffffffffffffffffffffffffffffff1663de68a5e96040518163ffffffff167c0100000000000000000000000000000000000000000000000000000000028152600401602060405180830381600087803b15801561362057600080fd5b505af1158015613634573d6000803e3d6000fd5b505050506040513d602081101561364a57600080fd5b810190808051906020019092919050505090508073ffffffffffffffffffffffffffffffffffffffff163373ffffffffffffffffffffffffffffffffffffffff1614151561369757600080fd5b601060009054906101000a900473ffffffffffffffffffffffffffffffffffffffff1673ffffffffffffffffffffffffffffffffffffffff16638f4248d5836040518263ffffffff167c010000000000000000000000000000000000000000000000000000000002815260040180828152602001915050600060405180830381600087803b15801561372857600080fd5b505af115801561373c573d6000803e3d6000fd5b505050507f4ee26cfd2b337283cadf41747d7e0cf0674acb2a120c936dc50566ce8e6ebddf826040518082815260200191505060405180910390a15050565b606060098054600181600116156101000203166002900480601f0160208091040260200160405190810160405280929190818152602001828054600181600116156101000203166002900480156138135780601f106137e857610100808354040283529160200191613813565b820191906000526020600020905b8154815290600101906020018083116137f657829003601f168201915b5050505050905090565b6000601360009054906101000a900473ffffffffffffffffffffffffffffffffffffffff1673ffffffffffffffffffffffffffffffffffffffff16636805b84b6040518163ffffffff167c0100000000000000000000000000000000000000000000000000000000028152600401602060405180830381600087803b1580156138a557600080fd5b505af11580156138b9573d6000803e3d6000fd5b505050506040513d60208110156138cf57600080fd5b81019080805190602001909291905050509050801515600015151415156138f557600080fd5b600e60009054906101000a900473ffffffffffffffffffffffffffffffffffffffff1673ffffffffffffffffffffffffffffffffffffffff1663859b97fe33846040518363ffffffff167c0100000000000000000000000000000000000000000000000000000000028152600401808373ffffffffffffffffffffffffffffffffffffffff1673ffffffffffffffffffffffffffffffffffffffff16815260200182815260200192505050600060405180830381600087803b1580156139ba57600080fd5b505af11580156139ce573d6000803e3d6000fd5b505050506139ff600e60009054906101000a900473ffffffffffffffffffffffffffffffffffffffff163384612387565b3373ffffffffffffffffffffffffffffffffffffffff167f2c25d24dfe9658b516c1350cfc2a18f745a8d59f68ff5ec62bda4cc2a0e2b17f836040518082815260200191505060405180910390a25050565b600460009054906101000a900473ffffffffffffffffffffffffffffffffffffffff1673ffffffffffffffffffffffffffffffffffffffff163373ffffffffffffffffffffffffffffffffffffffff16141515613b16576040517f08c379a000000000000000000000000000000000000000000000000000000000815260040180806020018281038252600b8152602001807f4f776e65643a206572723100000000000000000000000000000000000000000081525060200191505060405180910390fd5b80601360006101000a81548173ffffffffffffffffffffffffffffffffffffffff021916908373ffffffffffffffffffffffffffffffffffffffff16021790555050565b6000601160009054906101000a900473ffffffffffffffffffffffffffffffffffffffff1673ffffffffffffffffffffffffffffffffffffffff1663970129be836040518263ffffffff167c010000000000000000000000000000000000000000000000000000000002815260040180828152602001915050602060405180830381600087803b158015613bed57600080fd5b505af1158015613c01573d6000803e3d6000fd5b505050506040513d6020811015613c1757600080fd5b81019080805190602001909291905050509050919050565b3373ffffffffffffffffffffffffffffffffffffffff168273ffffffffffffffffffffffffffffffffffffffff1614151515613c6a57600080fd5b80600360003373ffffffffffffffffffffffffffffffffffffffff1673ffffffffffffffffffffffffffffffffffffffff16815260200190815260200160002060008473ffffffffffffffffffffffffffffffffffffffff1673ffffffffffffffffffffffffffffffffffffffff16815260200190815260200160002060006101000a81548160ff0219169083151502179055508173ffffffffffffffffffffffffffffffffffffffff163373ffffffffffffffffffffffffffffffffffffffff167f17307eab39ab6107e8899845ad3d59bd9653f200f220920489ca2b5937696c3183604051808215151515815260200191505060405180910390a35050565b81613d763382614932565b1515613d8157600080fd5b613d8c858585611936565b613d9885858585614ff6565b1515613da357600080fd5b5050505050565b6000806000601360009054906101000a900473ffffffffffffffffffffffffffffffffffffffff1673ffffffffffffffffffffffffffffffffffffffff16636805b84b6040518163ffffffff167c0100000000000000000000000000000000000000000000000000000000028152600401602060405180830381600087803b158015613e3557600080fd5b505af1158015613e49573d6000803e3d6000fd5b505050506040513d6020811015613e5f57600080fd5b8101908080519060200190929190505050905080151560001515141515613e8557600080fd5b601360009054906101000a900473ffffffffffffffffffffffffffffffffffffffff1673ffffffffffffffffffffffffffffffffffffffff166315f897916040518163ffffffff167c0100000000000000000000000000000000000000000000000000000000028152600401602060405180830381600087803b158015613f0b57600080fd5b505af1158015613f1f573d6000803e3d6000fd5b505050506040513d6020811015613f3557600080fd5b81019080805190602001909291905050509250601160009054906101000a900473ffffffffffffffffffffffffffffffffffffffff1673ffffffffffffffffffffffffffffffffffffffff1663bcbdcd6286866040518363ffffffff167c01000000000000000000000000000000000000000000000000000000000281526004018083815260200182815260200192505050602060405180830381600087803b158015613fe157600080fd5b505af1158015613ff5573d6000803e3d6000fd5b505050506040513d602081101561400b57600080fd5b81019080805190602001909291905050509150601654831115151561402f57600080fd5b614038846151e4565b601260009054906101000a900473ffffffffffffffffffffffffffffffffffffffff1673ffffffffffffffffffffffffffffffffffffffff16638fe6c40c33856040518363ffffffff167c0100000000000000000000000000000000000000000000000000000000028152600401808373ffffffffffffffffffffffffffffffffffffffff1673ffffffffffffffffffffffffffffffffffffffff16815260200182815260200192505050600060405180830381600087803b1580156140fd57600080fd5b505af1158015614111573d6000803e3d6000fd5b505050503373ffffffffffffffffffffffffffffffffffffffff167f3e5a885377f0411a6ce562bae5f41fb3e4c0d495fd16872b454666cdb0a6eea586868560405180848152602001838152602001828152602001935050505060405180910390a25050505050565b600460009054906101000a900473ffffffffffffffffffffffffffffffffffffffff1673ffffffffffffffffffffffffffffffffffffffff163373ffffffffffffffffffffffffffffffffffffffff1614151561423f576040517f08c379a000000000000000000000000000000000000000000000000000000000815260040180806020018281038252600b8152602001807f4f776e65643a206572723100000000000000000000000000000000000000000081525060200191505060405180910390fd5b80601160006101000a81548173ffffffffffffffffffffffffffffffffffffffff021916908373ffffffffffffffffffffffffffffffffffffffff16021790555050565b6000601360009054906101000a900473ffffffffffffffffffffffffffffffffffffffff1673ffffffffffffffffffffffffffffffffffffffff1663de68a5e96040518163ffffffff167c0100000000000000000000000000000000000000000000000000000000028152600401602060405180830381600087803b15801561430b57600080fd5b505af115801561431f573d6000803e3d6000fd5b505050506040513d602081101561433557600080fd5b810190808051906020019092919050505090508073ffffffffffffffffffffffffffffffffffffffff163373ffffffffffffffffffffffffffffffffffffffff1614151561438257600080fd5b601260009054906101000a900473ffffffffffffffffffffffffffffffffffffffff1673ffffffffffffffffffffffffffffffffffffffff1663cfcc8c7c84846040518363ffffffff167c0100000000000000000000000000000000000000000000000000000000028152600401808373ffffffffffffffffffffffffffffffffffffffff1673ffffffffffffffffffffffffffffffffffffffff16815260200182815260200192505050600060405180830381600087803b15801561444757600080fd5b505af115801561445b573d6000803e3d6000fd5b505050508273ffffffffffffffffffffffffffffffffffffffff167f11631089a819f66186791823d33d5a89cd9b947d13da96b1ee2727d4302f584b836040518082815260200191505060405180910390a2505050565b600560009054906101000a900473ffffffffffffffffffffffffffffffffffffffff1681565b6000601260009054906101000a900473ffffffffffffffffffffffffffffffffffffffff1673ffffffffffffffffffffffffffffffffffffffff1663ef4ba815836040518263ffffffff167c010000000000000000000000000000000000000000000000000000000002815260040180828152602001915050602060405180830381600087803b15801561456b57600080fd5b505af115801561457f573d6000803e3d6000fd5b505050506040513d602081101561459557600080fd5b810190808051906020019092919050505015156145b157600080fd5b601260009054906101000a900473ffffffffffffffffffffffffffffffffffffffff1673ffffffffffffffffffffffffffffffffffffffff16639344a1ce33846040518363ffffffff167c0100000000000000000000000000000000000000000000000000000000028152600401808373ffffffffffffffffffffffffffffffffffffffff1673ffffffffffffffffffffffffffffffffffffffff16815260200182815260200192505050602060405180830381600087803b15801561467657600080fd5b505af115801561468a573d6000803e3d6000fd5b505050506040513d60208110156146a057600080fd5b810190808051906020019092919050505050919050565b6000600360008473ffffffffffffffffffffffffffffffffffffffff1673ffffffffffffffffffffffffffffffffffffffff16815260200190815260200160002060008373ffffffffffffffffffffffffffffffffffffffff1673ffffffffffffffffffffffffffffffffffffffff16815260200190815260200160002060009054906101000a900460ff16905092915050565b6000600f60009054906101000a900473ffffffffffffffffffffffffffffffffffffffff1673ffffffffffffffffffffffffffffffffffffffff16635cf4ee9184846040518363ffffffff167c01000000000000000000000000000000000000000000000000000000000281526004018083815260200182815260200192505050602060405180830381600087803b1580156147e657600080fd5b505af11580156147fa573d6000803e3d6000fd5b505050506040513d602081101561481057600080fd5b8101908080519060200190929190505050905092915050565b600460009054906101000a900473ffffffffffffffffffffffffffffffffffffffff1673ffffffffffffffffffffffffffffffffffffffff163373ffffffffffffffffffffffffffffffffffffffff161415156148ee576040517f08c379a000000000000000000000000000000000000000000000000000000000815260040180806020018281038252600b8152602001807f4f776e65643a206572723100000000000000000000000000000000000000000081525060200191505060405180910390fd5b80600560006101000a81548173ffffffffffffffffffffffffffffffffffffffff021916908373ffffffffffffffffffffffffffffffffffffffff16021790555050565b60008061493e83612f19565b90508073ffffffffffffffffffffffffffffffffffffffff168473ffffffffffffffffffffffffffffffffffffffff1614806149ad57508373ffffffffffffffffffffffffffffffffffffffff1661499584611074565b73ffffffffffffffffffffffffffffffffffffffff16145b806149be57506149bd81856146b7565b5b91505092915050565b8173ffffffffffffffffffffffffffffffffffffffff166149e782612f19565b73ffffffffffffffffffffffffffffffffffffffff16141515614a0957600080fd5b600073ffffffffffffffffffffffffffffffffffffffff166001600083815260200190815260200160002060009054906101000a900473ffffffffffffffffffffffffffffffffffffffff1673ffffffffffffffffffffffffffffffffffffffff16141515614b2c5760006001600083815260200190815260200160002060006101000a81548173ffffffffffffffffffffffffffffffffffffffff021916908373ffffffffffffffffffffffffffffffffffffffff160217905550600073ffffffffffffffffffffffffffffffffffffffff168273ffffffffffffffffffffffffffffffffffffffff167f8c5be1e5ebec7d5bd14f71427d1e84f3dd0314c0f7b2291e5b200ac8c7c3b925836040518082815260200191505060405180910390a35b5050565b6000806000614b3f85856152ca565b600b6000858152602001908152602001600020549250614bab6001600a60008873ffffffffffffffffffffffffffffffffffffffff1673ffffffffffffffffffffffffffffffffffffffff168152602001908152602001600020805490506153f890919063ffffffff16565b9150600a60008673ffffffffffffffffffffffffffffffffffffffff1673ffffffffffffffffffffffffffffffffffffffff16815260200190815260200160002082815481101515614bf957fe5b9060005260206000200154905080600a60008773ffffffffffffffffffffffffffffffffffffffff1673ffffffffffffffffffffffffffffffffffffffff16815260200190815260200160002084815481101515614c5357fe5b90600052602060002001819055506000600a60008773ffffffffffffffffffffffffffffffffffffffff1673ffffffffffffffffffffffffffffffffffffffff16815260200190815260200160002083815481101515614caf57fe5b9060005260206000200181905550600a60008673ffffffffffffffffffffffffffffffffffffffff1673ffffffffffffffffffffffffffffffffffffffff168152602001908152602001600020805480919060019003614d0f91906156eb565b506000600b60008681526020019081526020016000208190555082600b6000838152602001908152602001600020819055505050505050565b6000614d54838361547d565b600a60008473ffffffffffffffffffffffffffffffffffffffff1673ffffffffffffffffffffffffffffffffffffffff168152602001908152602001600020805490509050600a60008473ffffffffffffffffffffffffffffffffffffffff1673ffffffffffffffffffffffffffffffffffffffff16815260200190815260200160002082908060018154018082558091505090600182039060005260206000200160009091929091909150555080600b600084815260200190815260200160002081905550505050565b600073ffffffffffffffffffffffffffffffffffffffff168273ffffffffffffffffffffffffffffffffffffffff1614151515614e5b57600080fd5b614e658282614d48565b8173ffffffffffffffffffffffffffffffffffffffff16600073ffffffffffffffffffffffffffffffffffffffff167fddf252ad1be2c89b69c2b068fc378daa952ba7f163c4a11628f55a4df523b3ef836040518082815260200191505060405180910390a35050565b600081830290506000831480614eef5750818382811515614eec57fe5b04145b1515614f63576040517f08c379a000000000000000000000000000000000000000000000000000000000815260040180806020018281038252600e8152602001807f536166654d6174683a206572723300000000000000000000000000000000000081525060200191505060405180910390fd5b92915050565b60008082111515614fe2576040517f08c379a000000000000000000000000000000000000000000000000000000000815260040180806020018281038252600e8152602001807f536166654d6174683a206572723400000000000000000000000000000000000081525060200191505060405180910390fd5b8183811515614fed57fe5b04905092915050565b6000806150188573ffffffffffffffffffffffffffffffffffffffff166155d5565b151561502757600191506151db565b8473ffffffffffffffffffffffffffffffffffffffff1663f0b9e5ba8786866040518463ffffffff167c0100000000000000000000000000000000000000000000000000000000028152600401808473ffffffffffffffffffffffffffffffffffffffff1673ffffffffffffffffffffffffffffffffffffffff16815260200183815260200180602001828103825283818151815260200191508051906020019080838360005b838110156150e95780820151818401526020810190506150ce565b50505050905090810190601f1680156151165780820380516001836020036101000a031916815260200191505b50945050505050602060405180830381600087803b15801561513757600080fd5b505af115801561514b573d6000803e3d6000fd5b505050506040513d602081101561516157600080fd5b8101908080519060200190929190505050905063f0b9e5ba7c0100000000000000000000000000000000000000000000000000000000027bffffffffffffffffffffffffffffffffffffffffffffffffffffffff1916817bffffffffffffffffffffffffffffffffffffffffffffffffffffffff19161491505b50949350505050565b60008060006151f333856155e8565b600d60008581526020019081526020016000205492506152226001600c805490506153f890919063ffffffff16565b9150600c8281548110151561523357fe5b9060005260206000200154905080600c8481548110151561525057fe5b90600052602060002001819055506000600c8381548110151561526f57fe5b9060005260206000200181905550600c80548091906001900361529291906156eb565b506000600d60008681526020019081526020016000208190555082600d60008381526020019081526020016000208190555050505050565b8173ffffffffffffffffffffffffffffffffffffffff166152ea82612f19565b73ffffffffffffffffffffffffffffffffffffffff1614151561530c57600080fd5b61535f6001600260008573ffffffffffffffffffffffffffffffffffffffff1673ffffffffffffffffffffffffffffffffffffffff168152602001908152602001600020546153f890919063ffffffff16565b600260008473ffffffffffffffffffffffffffffffffffffffff1673ffffffffffffffffffffffffffffffffffffffff16815260200190815260200160002081905550600080600083815260200190815260200160002060006101000a81548173ffffffffffffffffffffffffffffffffffffffff021916908373ffffffffffffffffffffffffffffffffffffffff1602179055505050565b6000828211151515615472576040517f08c379a000000000000000000000000000000000000000000000000000000000815260040180806020018281038252600e8152602001807f536166654d6174683a206572723200000000000000000000000000000000000081525060200191505060405180910390fd5b818303905092915050565b600073ffffffffffffffffffffffffffffffffffffffff1660008083815260200190815260200160002060009054906101000a900473ffffffffffffffffffffffffffffffffffffffff1673ffffffffffffffffffffffffffffffffffffffff161415156154ea57600080fd5b8160008083815260200190815260200160002060006101000a81548173ffffffffffffffffffffffffffffffffffffffff021916908373ffffffffffffffffffffffffffffffffffffffff16021790555061558e6001600260008573ffffffffffffffffffffffffffffffffffffffff1673ffffffffffffffffffffffffffffffffffffffff1681526020019081526020016000205461566690919063ffffffff16565b600260008473ffffffffffffffffffffffffffffffffffffffff1673ffffffffffffffffffffffffffffffffffffffff168152602001908152602001600020819055505050565b600080823b905060008111915050919050565b6155f282826149c7565b6155fc8282614b30565b600073ffffffffffffffffffffffffffffffffffffffff168273ffffffffffffffffffffffffffffffffffffffff167fddf252ad1be2c89b69c2b068fc378daa952ba7f163c4a11628f55a4df523b3ef836040518082815260200191505060405180910390a35050565b600081830190508281101515156156e5576040517f08c379a000000000000000000000000000000000000000000000000000000000815260040180806020018281038252600e8152602001807f536166654d6174683a206572723100000000000000000000000000000000000081525060200191505060405180910390fd5b92915050565b815481835581811115615712578183600052602060002091820191016157119190615717565b5b505050565b61573991905b8082111561573557600081600090555060010161571d565b5090565b905600a165627a7a72305820be7088ab4286522feb15a857ea5869b14e97c3a6092da7bc72d95d534e8b77400029",
  "source": "pragma solidity ^ 0.4.25;\r\n\r\nimport './Interfaces.sol';\r\nimport './Helpers.sol';\r\nimport './Enums.sol';\r\n\r\nimport \"./WildaloERC721.sol\";\r\n\r\nimport './Libs.sol';\r\n\r\ncontract Wildalo is IWildalo, WildaloERC721,\r\n    UsingAuction,\r\n    UsingCardPackage,\r\n    UsingCardBase,\r\n    UsingCard,\r\n    UsingRepository,\r\n    UsingSettings,\r\n    UsingEnums {\r\n\r\n    using SafeMath for uint256;\r\n    using CardByteModifier for uint256;\r\n\r\n    uint MAX_BID_CUT_OF_PERCENT = 2000; //%20\r\n    uint MAX_FODR_CUT_OF_PERCENT = 2000; //%20\r\n    uint MAX_FODR_BURN_ON_UPDATE = 1000000000000000;\r\n\r\n    function mintFodr(address _to, uint _amount) __onlySystemUser public {\r\n        Repository.mintFodr(_to, _amount);\r\n        emit MintFodr(_to, _amount);\r\n    }\r\n\r\n    function transferFunds(address _to, uint256 _requestId, uint _amount, uint256 _currency) __onlySystemUser public {\r\n        require(Repository.isExistsCurrency(_currency));\r\n        if (_currency == uint256(CurrencyType.FODR)) {\r\n            Repository.mintFodr(_to, _amount);\r\n        } else if (_currency == uint256(CurrencyType.WARC)) {\r\n            Repository.withdrawToken(_to, _currency, _amount);\r\n        }\r\n        emit TransferFunds(_to, _requestId, _amount, _currency);\r\n    }\r\n\r\n    function createCardBase(uint256 _metedata) __onlySystemUser public {\r\n        CardBase.createCardBase(_metedata);\r\n        emit CreateCardBase(_metedata);\r\n    }\r\n\r\n    function mintCardWithBaseId(address _to, uint256 _baseId) __onlySystemUser public {\r\n        uint256 cardId; \r\n        uint256 metadata; \r\n        (cardId, metadata) = Card.mintCardWithBaseId( _to, _baseId);\r\n        emit MintCardWithBaseId(_to, cardId, metadata);\r\n    }\r\n\r\n    function upgradeCard(uint256 _cardId, uint256 _burnedCardId) __notPaused public {\r\n        uint256 fodrsForBurn = Settings.getFodrBurningCountOnUpdate();\r\n\r\n        uint256 metatada = Card.upgradeCard(_cardId, _burnedCardId);\r\n        require(fodrsForBurn <= MAX_FODR_BURN_ON_UPDATE);\r\n\r\n        super._burn(_burnedCardId);\r\n        Repository.burnFodr(msg.sender, fodrsForBurn);\r\n        emit UpgradeCard(msg.sender, _cardId, _burnedCardId, metatada);\r\n    }\r\n\r\n    function getPackagePrice(uint256 _packageType, uint256 _currencyType) public view returns(uint256) {\r\n        return CardPackage.getPrice(_packageType, _currencyType);\r\n    }\r\n\r\n    function buyPackage(uint256 _packageType, uint256 _currency) __notPaused public payable {\r\n\r\n        require(Repository.isExistsCurrency(_currency));\r\n\r\n        (uint256 price, uint256 packageId) = CardPackage.createPackage(msg.sender, _packageType, _currency);\r\n\r\n        if(_currency == uint256(CurrencyType.AVAX)) {\r\n            require (price <= msg.value);\r\n            //deposit avax\r\n            require(address(Repository).call.value(price)());\r\n            //its ok. in this scope \"value - budget\" never be negative.\r\n            //msg.sender.transfer(msg.value - _budget);\r\n            if(price < msg.value) {\r\n                require(msg.sender.call.value(msg.value - price)());\r\n            }\r\n        } else if (_currency == uint256(CurrencyType.FODR)) {\r\n\r\n            Repository.depositToken(msg.sender, _currency, price);\r\n            msg.sender.transfer(msg.value);\r\n        }\r\n        emit BuyPackage(msg.sender, packageId, _packageType, _currency, price);\r\n    }\r\n\r\n    function createAuction(uint256 _currency, uint256 _cardId, uint256 _startPrice, uint256 _endPrice, uint256 _duration) __notPaused public {\r\n        require(Repository.isExistsCurrency(_currency));\r\n\r\n        super.approve(address(Auction), _cardId);\r\n        Auction.createAuction(msg.sender, _currency, _cardId, _startPrice, _endPrice, _duration);\r\n        emit CreatAuction(msg.sender, _currency, _cardId, _startPrice, _endPrice, _duration);\r\n    }\r\n\r\n    function cancelAuction(uint256 _cardId) __notPaused public {\r\n\r\n        Auction.cancelAuction(msg.sender, _cardId);\r\n        super.safeTransferFrom(address(Auction), msg.sender, _cardId);\r\n        emit CancelAuction(msg.sender, _cardId);\r\n    }\r\n\r\n    //TODO: player'in datasina ekleme + guvenlik.\r\n    function bid(uint256 _cardId) __notPaused public payable {\r\n\r\n        uint256 price; \r\n        uint256 currency; \r\n        uint256 discount; \r\n        address cardOwner;\r\n\r\n        (cardOwner, price, currency) = Auction.getAuctionInfoForBid(_cardId);\r\n\r\n        discount = Settings.getBidDiscountPercent();\r\n        require(discount <= MAX_BID_CUT_OF_PERCENT);\r\n        discount = price.mul(discount).div(10000);\r\n\r\n        if(currency == uint256(CurrencyType.AVAX)) {            \r\n            require (price <= msg.value);\r\n            //deposit avax\r\n            require(address(Repository).call.value(discount)());\r\n            require(cardOwner.call.value(price - discount)());\r\n\r\n            //its ok. in this scope \"value - budget\" never be negative.\r\n            //msg.sender.transfer(msg.value - _budget);\r\n            if(price < msg.value) {\r\n                require(msg.sender.call.value(msg.value - price)());\r\n            }            \r\n        } else if (currency == uint256(CurrencyType.FODR)) {\r\n            Repository.depositToken(msg.sender, currency, discount);\r\n            Repository.transferFrom(msg.sender, cardOwner, currency, price - discount);\r\n            msg.sender.transfer(msg.value);\r\n        }\r\n\r\n        Auction.bid(msg.sender, _cardId);\r\n        super.safeTransferFrom( address(Auction), msg.sender, _cardId);\r\n        emit Bid(cardOwner, msg.sender, _cardId, price, currency);\r\n    }\r\n\r\n    function getTokenAllowance(uint256 _currency) public view returns(uint256) {\r\n        require(Repository.isExistsCurrency(_currency));\r\n        Repository.getTokenAllowance(msg.sender, _currency);\r\n    }\r\n\r\n    function getCardInfo(uint256 _cardId) public view returns(uint256) {\r\n        return Card.getCardInfo(_cardId);\r\n    }\r\n\r\n}",
  "sourcePath": "C:\\wildalo\\wildalo-contract-dev\\contracts\\Wildalo.sol",
  "compiler": {
    "name": "solc",
    "version": "0.4.25+commit.59dbf8f1.Emscripten.clang"
  },
  "schemaVersion": "3.4.5",
  "updatedAt": "2022-06-26T17:07:00.659Z",
  "networkType": "ethereum",
  "devdoc": {
    "methods": {}
  },
  "userdoc": {
    "methods": {}
  }
}